{
  "_format": "hh-sol-artifact-1",
  "contractName": "GreedIsGood",
  "sourceName": "contracts/GreedIsGood.sol",
  "abi": [
    {
      "inputs": [],
      "stateMutability": "nonpayable",
      "type": "constructor"
    },
    {
      "inputs": [],
      "name": "ApprovalCallerNotOwnerNorApproved",
      "type": "error"
    },
    {
      "inputs": [],
      "name": "ApprovalQueryForNonexistentToken",
      "type": "error"
    },
    {
      "inputs": [],
      "name": "BalanceQueryForZeroAddress",
      "type": "error"
    },
    {
      "inputs": [],
      "name": "MintERC2309QuantityExceedsLimit",
      "type": "error"
    },
    {
      "inputs": [],
      "name": "MintToZeroAddress",
      "type": "error"
    },
    {
      "inputs": [],
      "name": "MintZeroQuantity",
      "type": "error"
    },
    {
      "inputs": [],
      "name": "OwnerQueryForNonexistentToken",
      "type": "error"
    },
    {
      "inputs": [],
      "name": "OwnershipNotInitializedForExtraData",
      "type": "error"
    },
    {
      "inputs": [],
      "name": "TransferCallerNotOwnerNorApproved",
      "type": "error"
    },
    {
      "inputs": [],
      "name": "TransferFromIncorrectOwner",
      "type": "error"
    },
    {
      "inputs": [],
      "name": "TransferToNonERC721ReceiverImplementer",
      "type": "error"
    },
    {
      "inputs": [],
      "name": "TransferToZeroAddress",
      "type": "error"
    },
    {
      "inputs": [],
      "name": "URIQueryForNonexistentToken",
      "type": "error"
    },
    {
      "anonymous": false,
      "inputs": [
        {
          "indexed": true,
          "internalType": "address",
          "name": "owner",
          "type": "address"
        },
        {
          "indexed": true,
          "internalType": "address",
          "name": "approved",
          "type": "address"
        },
        {
          "indexed": true,
          "internalType": "uint256",
          "name": "tokenId",
          "type": "uint256"
        }
      ],
      "name": "Approval",
      "type": "event"
    },
    {
      "anonymous": false,
      "inputs": [
        {
          "indexed": true,
          "internalType": "address",
          "name": "owner",
          "type": "address"
        },
        {
          "indexed": true,
          "internalType": "address",
          "name": "operator",
          "type": "address"
        },
        {
          "indexed": false,
          "internalType": "bool",
          "name": "approved",
          "type": "bool"
        }
      ],
      "name": "ApprovalForAll",
      "type": "event"
    },
    {
      "anonymous": false,
      "inputs": [
        {
          "indexed": true,
          "internalType": "uint256",
          "name": "fromTokenId",
          "type": "uint256"
        },
        {
          "indexed": false,
          "internalType": "uint256",
          "name": "toTokenId",
          "type": "uint256"
        },
        {
          "indexed": true,
          "internalType": "address",
          "name": "from",
          "type": "address"
        },
        {
          "indexed": true,
          "internalType": "address",
          "name": "to",
          "type": "address"
        }
      ],
      "name": "ConsecutiveTransfer",
      "type": "event"
    },
    {
      "anonymous": false,
      "inputs": [
        {
          "indexed": true,
          "internalType": "address",
          "name": "previousOwner",
          "type": "address"
        },
        {
          "indexed": true,
          "internalType": "address",
          "name": "newOwner",
          "type": "address"
        }
      ],
      "name": "OwnershipTransferred",
      "type": "event"
    },
    {
      "anonymous": false,
      "inputs": [
        {
          "indexed": true,
          "internalType": "address",
          "name": "from",
          "type": "address"
        },
        {
          "indexed": true,
          "internalType": "address",
          "name": "to",
          "type": "address"
        },
        {
          "indexed": true,
          "internalType": "uint256",
          "name": "tokenId",
          "type": "uint256"
        }
      ],
      "name": "Transfer",
      "type": "event"
    },
    {
      "inputs": [],
      "name": "MAX_MINT",
      "outputs": [
        {
          "internalType": "uint256",
          "name": "",
          "type": "uint256"
        }
      ],
      "stateMutability": "view",
      "type": "function"
    },
    {
      "inputs": [],
      "name": "MAX_SUPPLY",
      "outputs": [
        {
          "internalType": "uint256",
          "name": "",
          "type": "uint256"
        }
      ],
      "stateMutability": "view",
      "type": "function"
    },
    {
      "inputs": [],
      "name": "SALE_PRICE",
      "outputs": [
        {
          "internalType": "uint256",
          "name": "",
          "type": "uint256"
        }
      ],
      "stateMutability": "view",
      "type": "function"
    },
    {
      "inputs": [
        {
          "internalType": "address",
          "name": "to",
          "type": "address"
        },
        {
          "internalType": "uint256",
          "name": "tokenId",
          "type": "uint256"
        }
      ],
      "name": "approve",
      "outputs": [],
      "stateMutability": "payable",
      "type": "function"
    },
    {
      "inputs": [
        {
          "internalType": "address",
          "name": "owner",
          "type": "address"
        }
      ],
      "name": "balanceOf",
      "outputs": [
        {
          "internalType": "uint256",
          "name": "",
          "type": "uint256"
        }
      ],
      "stateMutability": "view",
      "type": "function"
    },
    {
      "inputs": [],
      "name": "baseURI",
      "outputs": [
        {
          "internalType": "string",
          "name": "",
          "type": "string"
        }
      ],
      "stateMutability": "view",
      "type": "function"
    },
    {
      "inputs": [
        {
          "internalType": "uint256",
          "name": "tokenId",
          "type": "uint256"
        }
      ],
      "name": "getApproved",
      "outputs": [
        {
          "internalType": "address",
          "name": "",
          "type": "address"
        }
      ],
      "stateMutability": "view",
      "type": "function"
    },
    {
      "inputs": [
        {
          "internalType": "address",
          "name": "owner",
          "type": "address"
        },
        {
          "internalType": "address",
          "name": "operator",
          "type": "address"
        }
      ],
      "name": "isApprovedForAll",
      "outputs": [
        {
          "internalType": "bool",
          "name": "",
          "type": "bool"
        }
      ],
      "stateMutability": "view",
      "type": "function"
    },
    {
      "inputs": [
        {
          "internalType": "uint256",
          "name": "_quantity",
          "type": "uint256"
        }
      ],
      "name": "mint",
      "outputs": [],
      "stateMutability": "payable",
      "type": "function"
    },
    {
      "inputs": [],
      "name": "mintStarted",
      "outputs": [
        {
          "internalType": "bool",
          "name": "",
          "type": "bool"
        }
      ],
      "stateMutability": "view",
      "type": "function"
    },
    {
      "inputs": [],
      "name": "name",
      "outputs": [
        {
          "internalType": "string",
          "name": "",
          "type": "string"
        }
      ],
      "stateMutability": "view",
      "type": "function"
    },
    {
      "inputs": [],
      "name": "owner",
      "outputs": [
        {
          "internalType": "address",
          "name": "",
          "type": "address"
        }
      ],
      "stateMutability": "view",
      "type": "function"
    },
    {
      "inputs": [
        {
          "internalType": "uint256",
          "name": "tokenId",
          "type": "uint256"
        }
      ],
      "name": "ownerOf",
      "outputs": [
        {
          "internalType": "address",
          "name": "",
          "type": "address"
        }
      ],
      "stateMutability": "view",
      "type": "function"
    },
    {
      "inputs": [],
      "name": "renounceOwnership",
      "outputs": [],
      "stateMutability": "nonpayable",
      "type": "function"
    },
    {
      "inputs": [
        {
          "internalType": "uint256",
          "name": "mintAmount",
          "type": "uint256"
        }
      ],
      "name": "reserveMint",
      "outputs": [],
      "stateMutability": "nonpayable",
      "type": "function"
    },
    {
      "inputs": [
        {
          "internalType": "address",
          "name": "from",
          "type": "address"
        },
        {
          "internalType": "address",
          "name": "to",
          "type": "address"
        },
        {
          "internalType": "uint256",
          "name": "tokenId",
          "type": "uint256"
        }
      ],
      "name": "safeTransferFrom",
      "outputs": [],
      "stateMutability": "payable",
      "type": "function"
    },
    {
      "inputs": [
        {
          "internalType": "address",
          "name": "from",
          "type": "address"
        },
        {
          "internalType": "address",
          "name": "to",
          "type": "address"
        },
        {
          "internalType": "uint256",
          "name": "tokenId",
          "type": "uint256"
        },
        {
          "internalType": "bytes",
          "name": "_data",
          "type": "bytes"
        }
      ],
      "name": "safeTransferFrom",
      "outputs": [],
      "stateMutability": "payable",
      "type": "function"
    },
    {
      "inputs": [
        {
          "internalType": "address",
          "name": "operator",
          "type": "address"
        },
        {
          "internalType": "bool",
          "name": "approved",
          "type": "bool"
        }
      ],
      "name": "setApprovalForAll",
      "outputs": [],
      "stateMutability": "nonpayable",
      "type": "function"
    },
    {
      "inputs": [
        {
          "internalType": "string",
          "name": "uri",
          "type": "string"
        }
      ],
      "name": "setBaseURI",
      "outputs": [],
      "stateMutability": "nonpayable",
      "type": "function"
    },
    {
      "inputs": [
        {
          "internalType": "uint256",
          "name": "_newPrice",
          "type": "uint256"
        }
      ],
      "name": "setPrice",
      "outputs": [],
      "stateMutability": "nonpayable",
      "type": "function"
    },
    {
      "inputs": [],
      "name": "startSale",
      "outputs": [],
      "stateMutability": "nonpayable",
      "type": "function"
    },
    {
      "inputs": [
        {
          "internalType": "bytes4",
          "name": "interfaceId",
          "type": "bytes4"
        }
      ],
      "name": "supportsInterface",
      "outputs": [
        {
          "internalType": "bool",
          "name": "",
          "type": "bool"
        }
      ],
      "stateMutability": "view",
      "type": "function"
    },
    {
      "inputs": [],
      "name": "symbol",
      "outputs": [
        {
          "internalType": "string",
          "name": "",
          "type": "string"
        }
      ],
      "stateMutability": "view",
      "type": "function"
    },
    {
      "inputs": [
        {
          "internalType": "uint256",
          "name": "tokenId",
          "type": "uint256"
        }
      ],
      "name": "tokenURI",
      "outputs": [
        {
          "internalType": "string",
          "name": "",
          "type": "string"
        }
      ],
      "stateMutability": "view",
      "type": "function"
    },
    {
      "inputs": [],
      "name": "totalSupply",
      "outputs": [
        {
          "internalType": "uint256",
          "name": "",
          "type": "uint256"
        }
      ],
      "stateMutability": "view",
      "type": "function"
    },
    {
      "inputs": [
        {
          "internalType": "address",
          "name": "from",
          "type": "address"
        },
        {
          "internalType": "address",
          "name": "to",
          "type": "address"
        },
        {
          "internalType": "uint256",
          "name": "tokenId",
          "type": "uint256"
        }
      ],
      "name": "transferFrom",
      "outputs": [],
      "stateMutability": "payable",
      "type": "function"
    },
    {
      "inputs": [
        {
          "internalType": "address",
          "name": "newOwner",
          "type": "address"
        }
      ],
      "name": "transferOwnership",
      "outputs": [],
      "stateMutability": "nonpayable",
      "type": "function"
    },
    {
      "inputs": [
        {
          "internalType": "address",
          "name": "",
          "type": "address"
        }
      ],
      "name": "walletMintCount",
      "outputs": [
        {
          "internalType": "uint256",
          "name": "",
          "type": "uint256"
        }
      ],
      "stateMutability": "view",
      "type": "function"
    },
    {
      "inputs": [],
      "name": "withdraw",
      "outputs": [],
      "stateMutability": "nonpayable",
      "type": "function"
    }
  ],
  "bytecode": "0x60806040526101bc600955660e35fa931a0000600a556002600b556000600c60006101000a81548160ff021916908315150217905550604051806060016040528060368152602001620034cf60369139600d90816200005f91906200048d565b503480156200006d57600080fd5b506040518060400160405280600d81526020017f4665656c206d79207772617468000000000000000000000000000000000000008152506040518060400160405280600381526020017f464d5700000000000000000000000000000000000000000000000000000000008152508160029081620000eb91906200048d565b508060039081620000fd91906200048d565b506200010e6200013c60201b60201c565b6000819055505050620001366200012a6200014560201b60201c565b6200014d60201b60201c565b62000574565b60006001905090565b600033905090565b6000600860009054906101000a900473ffffffffffffffffffffffffffffffffffffffff16905081600860006101000a81548173ffffffffffffffffffffffffffffffffffffffff021916908373ffffffffffffffffffffffffffffffffffffffff1602179055508173ffffffffffffffffffffffffffffffffffffffff168173ffffffffffffffffffffffffffffffffffffffff167f8be0079c531659141344cd1fd0a4f28419497f9722a3daafe3b4186f6b6457e060405160405180910390a35050565b600081519050919050565b7f4e487b7100000000000000000000000000000000000000000000000000000000600052604160045260246000fd5b7f4e487b7100000000000000000000000000000000000000000000000000000000600052602260045260246000fd5b600060028204905060018216806200029557607f821691505b602082108103620002ab57620002aa6200024d565b5b50919050565b60008190508160005260206000209050919050565b60006020601f8301049050919050565b600082821b905092915050565b600060088302620003157fffffffffffffffffffffffffffffffffffffffffffffffffffffffffffffffff82620002d6565b620003218683620002d6565b95508019841693508086168417925050509392505050565b6000819050919050565b6000819050919050565b60006200036e62000368620003628462000339565b62000343565b62000339565b9050919050565b6000819050919050565b6200038a836200034d565b620003a2620003998262000375565b848454620002e3565b825550505050565b600090565b620003b9620003aa565b620003c68184846200037f565b505050565b5b81811015620003ee57620003e2600082620003af565b600181019050620003cc565b5050565b601f8211156200043d576200040781620002b1565b6200041284620002c6565b8101602085101562000422578190505b6200043a6200043185620002c6565b830182620003cb565b50505b505050565b600082821c905092915050565b6000620004626000198460080262000442565b1980831691505092915050565b60006200047d83836200044f565b9150826002028217905092915050565b620004988262000213565b67ffffffffffffffff811115620004b457620004b36200021e565b5b620004c082546200027c565b620004cd828285620003f2565b600060209050601f831160018114620005055760008415620004f0578287015190505b620004fc85826200046f565b8655506200056c565b601f1984166200051586620002b1565b60005b828110156200053f5784890151825560018201915060208501945060208101905062000518565b868310156200055f57848901516200055b601f8916826200044f565b8355505b6001600288020188555050505b505050505050565b612f4b80620005846000396000f3fe6080604052600436106101c25760003560e01c8063715018a6116100f7578063a22cb46511610095578063c87b56dd11610064578063c87b56dd146105c5578063e985e9c514610602578063f0292a031461063f578063f2fde38b1461066a576101c2565b8063a22cb4651461053e578063a9722cf314610567578063b66a0e5d14610592578063b88d4fde146105a9576101c2565b806391b7f5ed116100d157806391b7f5ed1461049157806393ecb0c6146104ba57806395d89b41146104f7578063a0712d6814610522576101c2565b8063715018a6146104245780637f205a741461043b5780638da5cb5b14610466576101c2565b806332cb6b0c1161016457806355f804b31161013e57806355f804b3146103565780636352211e1461037f5780636c0360eb146103bc57806370a08231146103e7576101c2565b806332cb6b0c146102f85780633ccfd60b1461032357806342842e0e1461033a576101c2565b8063095ea7b3116101a0578063095ea7b31461026c5780631342ff4c1461028857806318160ddd146102b157806323b872dd146102dc576101c2565b806301ffc9a7146101c757806306fdde0314610204578063081812fc1461022f575b600080fd5b3480156101d357600080fd5b506101ee60048036038101906101e99190611f1c565b610693565b6040516101fb9190611f64565b60405180910390f35b34801561021057600080fd5b50610219610725565b604051610226919061200f565b60405180910390f35b34801561023b57600080fd5b5061025660048036038101906102519190612067565b6107b7565b60405161026391906120d5565b60405180910390f35b6102866004803603810190610281919061211c565b610836565b005b34801561029457600080fd5b506102af60048036038101906102aa9190612067565b61097a565b005b3480156102bd57600080fd5b506102c661098f565b6040516102d3919061216b565b60405180910390f35b6102f660048036038101906102f19190612186565b6109a6565b005b34801561030457600080fd5b5061030d610cc8565b60405161031a919061216b565b60405180910390f35b34801561032f57600080fd5b50610338610cce565b005b610354600480360381019061034f9190612186565b610d85565b005b34801561036257600080fd5b5061037d6004803603810190610378919061230e565b610da5565b005b34801561038b57600080fd5b506103a660048036038101906103a19190612067565b610dc0565b6040516103b391906120d5565b60405180910390f35b3480156103c857600080fd5b506103d1610dd2565b6040516103de919061200f565b60405180910390f35b3480156103f357600080fd5b5061040e60048036038101906104099190612357565b610e60565b60405161041b919061216b565b60405180910390f35b34801561043057600080fd5b50610439610f18565b005b34801561044757600080fd5b50610450610f2c565b60405161045d919061216b565b60405180910390f35b34801561047257600080fd5b5061047b610f32565b60405161048891906120d5565b60405180910390f35b34801561049d57600080fd5b506104b860048036038101906104b39190612067565b610f5c565b005b3480156104c657600080fd5b506104e160048036038101906104dc9190612357565b610f6e565b6040516104ee919061216b565b60405180910390f35b34801561050357600080fd5b5061050c610f86565b604051610519919061200f565b60405180910390f35b61053c60048036038101906105379190612067565b611018565b005b34801561054a57600080fd5b50610565600480360381019061056091906123b0565b611200565b005b34801561057357600080fd5b5061057c61130b565b6040516105899190611f64565b60405180910390f35b34801561059e57600080fd5b506105a761131e565b005b6105c360048036038101906105be9190612491565b611352565b005b3480156105d157600080fd5b506105ec60048036038101906105e79190612067565b6113c5565b6040516105f9919061200f565b60405180910390f35b34801561060e57600080fd5b5061062960048036038101906106249190612514565b611441565b6040516106369190611f64565b60405180910390f35b34801561064b57600080fd5b506106546114d5565b604051610661919061216b565b60405180910390f35b34801561067657600080fd5b50610691600480360381019061068c9190612357565b6114db565b005b60006301ffc9a760e01b827bffffffffffffffffffffffffffffffffffffffffffffffffffffffff191614806106ee57506380ac58cd60e01b827bffffffffffffffffffffffffffffffffffffffffffffffffffffffff1916145b8061071e5750635b5e139f60e01b827bffffffffffffffffffffffffffffffffffffffffffffffffffffffff1916145b9050919050565b60606002805461073490612583565b80601f016020809104026020016040519081016040528092919081815260200182805461076090612583565b80156107ad5780601f10610782576101008083540402835291602001916107ad565b820191906000526020600020905b81548152906001019060200180831161079057829003601f168201915b5050505050905090565b60006107c28261155e565b6107f8576040517fcf4700e400000000000000000000000000000000000000000000000000000000815260040160405180910390fd5b6006600083815260200190815260200160002060000160009054906101000a900473ffffffffffffffffffffffffffffffffffffffff169050919050565b600061084182610dc0565b90508073ffffffffffffffffffffffffffffffffffffffff166108626115bd565b73ffffffffffffffffffffffffffffffffffffffff16146108c55761088e816108896115bd565b611441565b6108c4576040517fcfb3b94200000000000000000000000000000000000000000000000000000000815260040160405180910390fd5b5b826006600084815260200190815260200160002060000160006101000a81548173ffffffffffffffffffffffffffffffffffffffff021916908373ffffffffffffffffffffffffffffffffffffffff160217905550818373ffffffffffffffffffffffffffffffffffffffff168273ffffffffffffffffffffffffffffffffffffffff167f8c5be1e5ebec7d5bd14f71427d1e84f3dd0314c0f7b2291e5b200ac8c7c3b92560405160405180910390a4505050565b6109826115c5565b61098c3382611643565b50565b6000610999611661565b6001546000540303905090565b60006109b18261166a565b90508373ffffffffffffffffffffffffffffffffffffffff168173ffffffffffffffffffffffffffffffffffffffff1614610a18576040517fa114810000000000000000000000000000000000000000000000000000000000815260040160405180910390fd5b600080610a2484611736565b91509150610a3a8187610a356115bd565b61175d565b610a8657610a4f86610a4a6115bd565b611441565b610a85576040517f59c896be00000000000000000000000000000000000000000000000000000000815260040160405180910390fd5b5b600073ffffffffffffffffffffffffffffffffffffffff168573ffffffffffffffffffffffffffffffffffffffff1603610aec576040517fea553b3400000000000000000000000000000000000000000000000000000000815260040160405180910390fd5b610af986868660016117a1565b8015610b0457600082555b600560008773ffffffffffffffffffffffffffffffffffffffff1673ffffffffffffffffffffffffffffffffffffffff168152602001908152602001600020600081546001900391905081905550600560008673ffffffffffffffffffffffffffffffffffffffff1673ffffffffffffffffffffffffffffffffffffffff1681526020019081526020016000206000815460010191905081905550610bd285610bae8888876117a7565b7c0200000000000000000000000000000000000000000000000000000000176117cf565b600460008681526020019081526020016000208190555060007c0200000000000000000000000000000000000000000000000000000000841603610c585760006001850190506000600460008381526020019081526020016000205403610c56576000548114610c55578360046000838152602001908152602001600020819055505b5b505b838573ffffffffffffffffffffffffffffffffffffffff168773ffffffffffffffffffffffffffffffffffffffff167fddf252ad1be2c89b69c2b068fc378daa952ba7f163c4a11628f55a4df523b3ef60405160405180910390a4610cc086868660016117fa565b505050505050565b60095481565b610cd66115c5565b60003373ffffffffffffffffffffffffffffffffffffffff1647604051610cfc906125e5565b60006040518083038185875af1925050503d8060008114610d39576040519150601f19603f3d011682016040523d82523d6000602084013e610d3e565b606091505b5050905080610d82576040517f08c379a0000000000000000000000000000000000000000000000000000000008152600401610d7990612646565b60405180910390fd5b50565b610da083838360405180602001604052806000815250611352565b505050565b610dad6115c5565b80600d9081610dbc9190612812565b5050565b6000610dcb8261166a565b9050919050565b600d8054610ddf90612583565b80601f0160208091040260200160405190810160405280929190818152602001828054610e0b90612583565b8015610e585780601f10610e2d57610100808354040283529160200191610e58565b820191906000526020600020905b815481529060010190602001808311610e3b57829003601f168201915b505050505081565b60008073ffffffffffffffffffffffffffffffffffffffff168273ffffffffffffffffffffffffffffffffffffffff1603610ec7576040517f8f4eb60400000000000000000000000000000000000000000000000000000000815260040160405180910390fd5b67ffffffffffffffff600560008473ffffffffffffffffffffffffffffffffffffffff1673ffffffffffffffffffffffffffffffffffffffff16815260200190815260200160002054169050919050565b610f206115c5565b610f2a6000611800565b565b600a5481565b6000600860009054906101000a900473ffffffffffffffffffffffffffffffffffffffff16905090565b610f646115c5565b80600a8190555050565b600e6020528060005260406000206000915090505481565b606060038054610f9590612583565b80601f0160208091040260200160405190810160405280929190818152602001828054610fc190612583565b801561100e5780601f10610fe35761010080835404028352916020019161100e565b820191906000526020600020905b815481529060010190602001808311610ff157829003601f168201915b5050505050905090565b600c60009054906101000a900460ff16611067576040517f08c379a000000000000000000000000000000000000000000000000000000000815260040161105e90612930565b60405180910390fd5b6009548161107361098f565b61107d919061297f565b11156110be576040517f08c379a00000000000000000000000000000000000000000000000000000000081526004016110b5906129ff565b60405180910390fd5b600b5481600e60003373ffffffffffffffffffffffffffffffffffffffff1673ffffffffffffffffffffffffffffffffffffffff1681526020019081526020016000205461110c919061297f565b111561114d576040517f08c379a000000000000000000000000000000000000000000000000000000000815260040161114490612a6b565b60405180910390fd5b80600a5461115b9190612a8b565b34101561119d576040517f08c379a000000000000000000000000000000000000000000000000000000000815260040161119490612b19565b60405180910390fd5b80600e60003373ffffffffffffffffffffffffffffffffffffffff1673ffffffffffffffffffffffffffffffffffffffff16815260200190815260200160002060008282546111ec919061297f565b925050819055506111fd3382611643565b50565b806007600061120d6115bd565b73ffffffffffffffffffffffffffffffffffffffff1673ffffffffffffffffffffffffffffffffffffffff16815260200190815260200160002060008473ffffffffffffffffffffffffffffffffffffffff1673ffffffffffffffffffffffffffffffffffffffff16815260200190815260200160002060006101000a81548160ff0219169083151502179055508173ffffffffffffffffffffffffffffffffffffffff166112ba6115bd565b73ffffffffffffffffffffffffffffffffffffffff167f17307eab39ab6107e8899845ad3d59bd9653f200f220920489ca2b5937696c31836040516112ff9190611f64565b60405180910390a35050565b600c60009054906101000a900460ff1681565b6113266115c5565b600c60009054906101000a900460ff1615600c60006101000a81548160ff021916908315150217905550565b61135d8484846109a6565b60008373ffffffffffffffffffffffffffffffffffffffff163b146113bf57611388848484846118c6565b6113be576040517fd1a57ed600000000000000000000000000000000000000000000000000000000815260040160405180910390fd5b5b50505050565b60606113d08261155e565b61140f576040517f08c379a000000000000000000000000000000000000000000000000000000000815260040161140690612bab565b60405180910390fd5b600d61141a83611a16565b60405160200161142b929190612cd6565b6040516020818303038152906040529050919050565b6000600760008473ffffffffffffffffffffffffffffffffffffffff1673ffffffffffffffffffffffffffffffffffffffff16815260200190815260200160002060008373ffffffffffffffffffffffffffffffffffffffff1673ffffffffffffffffffffffffffffffffffffffff16815260200190815260200160002060009054906101000a900460ff16905092915050565b600b5481565b6114e36115c5565b600073ffffffffffffffffffffffffffffffffffffffff168173ffffffffffffffffffffffffffffffffffffffff1603611552576040517f08c379a000000000000000000000000000000000000000000000000000000000815260040161154990612d77565b60405180910390fd5b61155b81611800565b50565b600081611569611661565b11158015611578575060005482105b80156115b6575060007c0100000000000000000000000000000000000000000000000000000000600460008581526020019081526020016000205416145b9050919050565b600033905090565b6115cd611ae4565b73ffffffffffffffffffffffffffffffffffffffff166115eb610f32565b73ffffffffffffffffffffffffffffffffffffffff1614611641576040517f08c379a000000000000000000000000000000000000000000000000000000000815260040161163890612de3565b60405180910390fd5b565b61165d828260405180602001604052806000815250611aec565b5050565b60006001905090565b60008082905080611679611661565b116116ff576000548110156116fe5760006004600083815260200190815260200160002054905060007c01000000000000000000000000000000000000000000000000000000008216036116fc575b600081036116f25760046000836001900393508381526020019081526020016000205490506116c8565b8092505050611731565b505b5b6040517fdf2d9b4200000000000000000000000000000000000000000000000000000000815260040160405180910390fd5b919050565b60008060006006600085815260200190815260200160002090508092508254915050915091565b600073ffffffffffffffffffffffffffffffffffffffff8316925073ffffffffffffffffffffffffffffffffffffffff821691508382148383141790509392505050565b50505050565b60008060e883901c905060e86117be868684611b89565b62ffffff16901b9150509392505050565b600073ffffffffffffffffffffffffffffffffffffffff83169250814260a01b178317905092915050565b50505050565b6000600860009054906101000a900473ffffffffffffffffffffffffffffffffffffffff16905081600860006101000a81548173ffffffffffffffffffffffffffffffffffffffff021916908373ffffffffffffffffffffffffffffffffffffffff1602179055508173ffffffffffffffffffffffffffffffffffffffff168173ffffffffffffffffffffffffffffffffffffffff167f8be0079c531659141344cd1fd0a4f28419497f9722a3daafe3b4186f6b6457e060405160405180910390a35050565b60008373ffffffffffffffffffffffffffffffffffffffff1663150b7a026118ec6115bd565b8786866040518563ffffffff1660e01b815260040161190e9493929190612e58565b6020604051808303816000875af192505050801561194a57506040513d601f19601f820116820180604052508101906119479190612eb9565b60015b6119c3573d806000811461197a576040519150601f19603f3d011682016040523d82523d6000602084013e61197f565b606091505b5060008151036119bb576040517fd1a57ed600000000000000000000000000000000000000000000000000000000815260040160405180910390fd5b805181602001fd5b63150b7a0260e01b7bffffffffffffffffffffffffffffffffffffffffffffffffffffffff1916817bffffffffffffffffffffffffffffffffffffffffffffffffffffffff191614915050949350505050565b606060006001611a2584611b92565b01905060008167ffffffffffffffff811115611a4457611a436121e3565b5b6040519080825280601f01601f191660200182016040528015611a765781602001600182028036833780820191505090505b509050600082602001820190505b600115611ad9578080600190039150507f3031323334353637383961626364656600000000000000000000000000000000600a86061a8153600a8581611acd57611acc612ee6565b5b04945060008503611a84575b819350505050919050565b600033905090565b611af68383611ce5565b60008373ffffffffffffffffffffffffffffffffffffffff163b14611b8457600080549050600083820390505b611b3660008683806001019450866118c6565b611b6c576040517fd1a57ed600000000000000000000000000000000000000000000000000000000815260040160405180910390fd5b818110611b23578160005414611b8157600080fd5b50505b505050565b60009392505050565b600080600090507a184f03e93ff9f4daa797ed6e38ed64bf6a1f0100000000000000008310611bf0577a184f03e93ff9f4daa797ed6e38ed64bf6a1f0100000000000000008381611be657611be5612ee6565b5b0492506040810190505b6d04ee2d6d415b85acef81000000008310611c2d576d04ee2d6d415b85acef81000000008381611c2357611c22612ee6565b5b0492506020810190505b662386f26fc100008310611c5c57662386f26fc100008381611c5257611c51612ee6565b5b0492506010810190505b6305f5e1008310611c85576305f5e1008381611c7b57611c7a612ee6565b5b0492506008810190505b6127108310611caa576127108381611ca057611c9f612ee6565b5b0492506004810190505b60648310611ccd5760648381611cc357611cc2612ee6565b5b0492506002810190505b600a8310611cdc576001810190505b80915050919050565b60008054905060008203611d25576040517fb562e8dd00000000000000000000000000000000000000000000000000000000815260040160405180910390fd5b611d3260008483856117a1565b600160406001901b178202600560008573ffffffffffffffffffffffffffffffffffffffff1673ffffffffffffffffffffffffffffffffffffffff16815260200190815260200160002060008282540192505081905550611da983611d9a60008660006117a7565b611da385611ea0565b176117cf565b6004600083815260200190815260200160002081905550600080838301905073ffffffffffffffffffffffffffffffffffffffff85169150828260007fddf252ad1be2c89b69c2b068fc378daa952ba7f163c4a11628f55a4df523b3ef600080a4600183015b818114611e4a57808360007fddf252ad1be2c89b69c2b068fc378daa952ba7f163c4a11628f55a4df523b3ef600080a4600181019050611e0f565b5060008203611e85576040517f2e07630000000000000000000000000000000000000000000000000000000000815260040160405180910390fd5b806000819055505050611e9b60008483856117fa565b505050565b60006001821460e11b9050919050565b6000604051905090565b600080fd5b600080fd5b60007fffffffff0000000000000000000000000000000000000000000000000000000082169050919050565b611ef981611ec4565b8114611f0457600080fd5b50565b600081359050611f1681611ef0565b92915050565b600060208284031215611f3257611f31611eba565b5b6000611f4084828501611f07565b91505092915050565b60008115159050919050565b611f5e81611f49565b82525050565b6000602082019050611f796000830184611f55565b92915050565b600081519050919050565b600082825260208201905092915050565b60005b83811015611fb9578082015181840152602081019050611f9e565b60008484015250505050565b6000601f19601f8301169050919050565b6000611fe182611f7f565b611feb8185611f8a565b9350611ffb818560208601611f9b565b61200481611fc5565b840191505092915050565b600060208201905081810360008301526120298184611fd6565b905092915050565b6000819050919050565b61204481612031565b811461204f57600080fd5b50565b6000813590506120618161203b565b92915050565b60006020828403121561207d5761207c611eba565b5b600061208b84828501612052565b91505092915050565b600073ffffffffffffffffffffffffffffffffffffffff82169050919050565b60006120bf82612094565b9050919050565b6120cf816120b4565b82525050565b60006020820190506120ea60008301846120c6565b92915050565b6120f9816120b4565b811461210457600080fd5b50565b600081359050612116816120f0565b92915050565b6000806040838503121561213357612132611eba565b5b600061214185828601612107565b925050602061215285828601612052565b9150509250929050565b61216581612031565b82525050565b6000602082019050612180600083018461215c565b92915050565b60008060006060848603121561219f5761219e611eba565b5b60006121ad86828701612107565b93505060206121be86828701612107565b92505060406121cf86828701612052565b9150509250925092565b600080fd5b600080fd5b7f4e487b7100000000000000000000000000000000000000000000000000000000600052604160045260246000fd5b61221b82611fc5565b810181811067ffffffffffffffff8211171561223a576122396121e3565b5b80604052505050565b600061224d611eb0565b90506122598282612212565b919050565b600067ffffffffffffffff821115612279576122786121e3565b5b61228282611fc5565b9050602081019050919050565b82818337600083830152505050565b60006122b16122ac8461225e565b612243565b9050828152602081018484840111156122cd576122cc6121de565b5b6122d884828561228f565b509392505050565b600082601f8301126122f5576122f46121d9565b5b813561230584826020860161229e565b91505092915050565b60006020828403121561232457612323611eba565b5b600082013567ffffffffffffffff81111561234257612341611ebf565b5b61234e848285016122e0565b91505092915050565b60006020828403121561236d5761236c611eba565b5b600061237b84828501612107565b91505092915050565b61238d81611f49565b811461239857600080fd5b50565b6000813590506123aa81612384565b92915050565b600080604083850312156123c7576123c6611eba565b5b60006123d585828601612107565b92505060206123e68582860161239b565b9150509250929050565b600067ffffffffffffffff82111561240b5761240a6121e3565b5b61241482611fc5565b9050602081019050919050565b600061243461242f846123f0565b612243565b9050828152602081018484840111156124505761244f6121de565b5b61245b84828561228f565b509392505050565b600082601f830112612478576124776121d9565b5b8135612488848260208601612421565b91505092915050565b600080600080608085870312156124ab576124aa611eba565b5b60006124b987828801612107565b94505060206124ca87828801612107565b93505060406124db87828801612052565b925050606085013567ffffffffffffffff8111156124fc576124fb611ebf565b5b61250887828801612463565b91505092959194509250565b6000806040838503121561252b5761252a611eba565b5b600061253985828601612107565b925050602061254a85828601612107565b9150509250929050565b7f4e487b7100000000000000000000000000000000000000000000000000000000600052602260045260246000fd5b6000600282049050600182168061259b57607f821691505b6020821081036125ae576125ad612554565b5b50919050565b600081905092915050565b50565b60006125cf6000836125b4565b91506125da826125bf565b600082019050919050565b60006125f0826125c2565b9150819050919050565b7f5472616e73666572206661696c65642e00000000000000000000000000000000600082015250565b6000612630601083611f8a565b915061263b826125fa565b602082019050919050565b6000602082019050818103600083015261265f81612623565b9050919050565b60008190508160005260206000209050919050565b60006020601f8301049050919050565b600082821b905092915050565b6000600883026126c87fffffffffffffffffffffffffffffffffffffffffffffffffffffffffffffffff8261268b565b6126d2868361268b565b95508019841693508086168417925050509392505050565b6000819050919050565b600061270f61270a61270584612031565b6126ea565b612031565b9050919050565b6000819050919050565b612729836126f4565b61273d61273582612716565b848454612698565b825550505050565b600090565b612752612745565b61275d818484612720565b505050565b5b818110156127815761277660008261274a565b600181019050612763565b5050565b601f8211156127c65761279781612666565b6127a08461267b565b810160208510156127af578190505b6127c36127bb8561267b565b830182612762565b50505b505050565b600082821c905092915050565b60006127e9600019846008026127cb565b1980831691505092915050565b600061280283836127d8565b9150826002028217905092915050565b61281b82611f7f565b67ffffffffffffffff811115612834576128336121e3565b5b61283e8254612583565b612849828285612785565b600060209050601f83116001811461287c576000841561286a578287015190505b61287485826127f6565b8655506128dc565b601f19841661288a86612666565b60005b828110156128b25784890151825560018201915060208501945060208101905061288d565b868310156128cf57848901516128cb601f8916826127d8565b8355505b6001600288020188555050505b505050505050565b7f4d696e74206861736e27742073746172746564207965742e0000000000000000600082015250565b600061291a601883611f8a565b9150612925826128e4565b602082019050919050565b600060208201905081810360008301526129498161290d565b9050919050565b7f4e487b7100000000000000000000000000000000000000000000000000000000600052601160045260246000fd5b600061298a82612031565b915061299583612031565b92508282019050808211156129ad576129ac612950565b5b92915050565b7f4d617820737570706c792065786365656465642e000000000000000000000000600082015250565b60006129e9601483611f8a565b91506129f4826129b3565b602082019050919050565b60006020820190508181036000830152612a18816129dc565b9050919050565b7f4d6178206d696e74206578636565646564000000000000000000000000000000600082015250565b6000612a55601183611f8a565b9150612a6082612a1f565b602082019050919050565b60006020820190508181036000830152612a8481612a48565b9050919050565b6000612a9682612031565b9150612aa183612031565b9250828202612aaf81612031565b91508282048414831517612ac657612ac5612950565b5b5092915050565b7f57726f6e67206d696e742070726963652e000000000000000000000000000000600082015250565b6000612b03601183611f8a565b9150612b0e82612acd565b602082019050919050565b60006020820190508181036000830152612b3281612af6565b9050919050565b7f4552433732314d657461646174613a2055524920717565727920666f72206e6f60008201527f6e6578697374656e7420746f6b656e0000000000000000000000000000000000602082015250565b6000612b95602f83611f8a565b9150612ba082612b39565b604082019050919050565b60006020820190508181036000830152612bc481612b88565b9050919050565b600081905092915050565b60008154612be381612583565b612bed8186612bcb565b94506001821660008114612c085760018114612c1d57612c50565b60ff1983168652811515820286019350612c50565b612c2685612666565b60005b83811015612c4857815481890152600182019150602081019050612c29565b838801955050505b50505092915050565b6000612c6482611f7f565b612c6e8185612bcb565b9350612c7e818560208601611f9b565b80840191505092915050565b7f2e6a736f6e000000000000000000000000000000000000000000000000000000600082015250565b6000612cc0600583612bcb565b9150612ccb82612c8a565b600582019050919050565b6000612ce28285612bd6565b9150612cee8284612c59565b9150612cf982612cb3565b91508190509392505050565b7f4f776e61626c653a206e6577206f776e657220697320746865207a65726f206160008201527f6464726573730000000000000000000000000000000000000000000000000000602082015250565b6000612d61602683611f8a565b9150612d6c82612d05565b604082019050919050565b60006020820190508181036000830152612d9081612d54565b9050919050565b7f4f776e61626c653a2063616c6c6572206973206e6f7420746865206f776e6572600082015250565b6000612dcd602083611f8a565b9150612dd882612d97565b602082019050919050565b60006020820190508181036000830152612dfc81612dc0565b9050919050565b600081519050919050565b600082825260208201905092915050565b6000612e2a82612e03565b612e348185612e0e565b9350612e44818560208601611f9b565b612e4d81611fc5565b840191505092915050565b6000608082019050612e6d60008301876120c6565b612e7a60208301866120c6565b612e87604083018561215c565b8181036060830152612e998184612e1f565b905095945050505050565b600081519050612eb381611ef0565b92915050565b600060208284031215612ecf57612ece611eba565b5b6000612edd84828501612ea4565b91505092915050565b7f4e487b7100000000000000000000000000000000000000000000000000000000600052601260045260246000fdfea264697066735822122011c1d8de74cf823b9b9d0a651a448b851d67246a433f56af2967a95b67c79f1d64736f6c63430008110033697066733a2f2f516d634e486454654e59324367783253686f367457356d5a59314e63554e764375486e70706b416d4147715579572f",
  "linkReferences": {},
  "deployedLinkReferences": {}
}