{
  "_format": "hh-sol-artifact-1",
  "contractName": "GreedIsGood",
  "sourceName": "contracts/GreedIsGood.sol",
  "abi": [
    {
      "inputs": [],
      "stateMutability": "nonpayable",
      "type": "constructor"
    },
    {
      "inputs": [],
      "name": "ApprovalCallerNotOwnerNorApproved",
      "type": "error"
    },
    {
      "inputs": [],
      "name": "ApprovalQueryForNonexistentToken",
      "type": "error"
    },
    {
      "inputs": [],
      "name": "BalanceQueryForZeroAddress",
      "type": "error"
    },
    {
      "inputs": [],
      "name": "MintERC2309QuantityExceedsLimit",
      "type": "error"
    },
    {
      "inputs": [],
      "name": "MintToZeroAddress",
      "type": "error"
    },
    {
      "inputs": [],
      "name": "MintZeroQuantity",
      "type": "error"
    },
    {
      "inputs": [],
      "name": "OwnerQueryForNonexistentToken",
      "type": "error"
    },
    {
      "inputs": [],
      "name": "OwnershipNotInitializedForExtraData",
      "type": "error"
    },
    {
      "inputs": [],
      "name": "TransferCallerNotOwnerNorApproved",
      "type": "error"
    },
    {
      "inputs": [],
      "name": "TransferFromIncorrectOwner",
      "type": "error"
    },
    {
      "inputs": [],
      "name": "TransferToNonERC721ReceiverImplementer",
      "type": "error"
    },
    {
      "inputs": [],
      "name": "TransferToZeroAddress",
      "type": "error"
    },
    {
      "inputs": [],
      "name": "URIQueryForNonexistentToken",
      "type": "error"
    },
    {
      "anonymous": false,
      "inputs": [
        {
          "indexed": true,
          "internalType": "address",
          "name": "owner",
          "type": "address"
        },
        {
          "indexed": true,
          "internalType": "address",
          "name": "approved",
          "type": "address"
        },
        {
          "indexed": true,
          "internalType": "uint256",
          "name": "tokenId",
          "type": "uint256"
        }
      ],
      "name": "Approval",
      "type": "event"
    },
    {
      "anonymous": false,
      "inputs": [
        {
          "indexed": true,
          "internalType": "address",
          "name": "owner",
          "type": "address"
        },
        {
          "indexed": true,
          "internalType": "address",
          "name": "operator",
          "type": "address"
        },
        {
          "indexed": false,
          "internalType": "bool",
          "name": "approved",
          "type": "bool"
        }
      ],
      "name": "ApprovalForAll",
      "type": "event"
    },
    {
      "anonymous": false,
      "inputs": [
        {
          "indexed": true,
          "internalType": "uint256",
          "name": "fromTokenId",
          "type": "uint256"
        },
        {
          "indexed": false,
          "internalType": "uint256",
          "name": "toTokenId",
          "type": "uint256"
        },
        {
          "indexed": true,
          "internalType": "address",
          "name": "from",
          "type": "address"
        },
        {
          "indexed": true,
          "internalType": "address",
          "name": "to",
          "type": "address"
        }
      ],
      "name": "ConsecutiveTransfer",
      "type": "event"
    },
    {
      "anonymous": false,
      "inputs": [
        {
          "indexed": true,
          "internalType": "address",
          "name": "previousOwner",
          "type": "address"
        },
        {
          "indexed": true,
          "internalType": "address",
          "name": "newOwner",
          "type": "address"
        }
      ],
      "name": "OwnershipTransferred",
      "type": "event"
    },
    {
      "anonymous": false,
      "inputs": [
        {
          "indexed": true,
          "internalType": "address",
          "name": "from",
          "type": "address"
        },
        {
          "indexed": true,
          "internalType": "address",
          "name": "to",
          "type": "address"
        },
        {
          "indexed": true,
          "internalType": "uint256",
          "name": "tokenId",
          "type": "uint256"
        }
      ],
      "name": "Transfer",
      "type": "event"
    },
    {
      "inputs": [],
      "name": "MAX_MINT",
      "outputs": [
        {
          "internalType": "uint256",
          "name": "",
          "type": "uint256"
        }
      ],
      "stateMutability": "view",
      "type": "function"
    },
    {
      "inputs": [],
      "name": "MAX_SUPPLY",
      "outputs": [
        {
          "internalType": "uint256",
          "name": "",
          "type": "uint256"
        }
      ],
      "stateMutability": "view",
      "type": "function"
    },
    {
      "inputs": [],
      "name": "SALE_PRICE",
      "outputs": [
        {
          "internalType": "uint256",
          "name": "",
          "type": "uint256"
        }
      ],
      "stateMutability": "view",
      "type": "function"
    },
    {
      "inputs": [
        {
          "internalType": "address",
          "name": "to",
          "type": "address"
        },
        {
          "internalType": "uint256",
          "name": "tokenId",
          "type": "uint256"
        }
      ],
      "name": "approve",
      "outputs": [],
      "stateMutability": "payable",
      "type": "function"
    },
    {
      "inputs": [
        {
          "internalType": "address",
          "name": "owner",
          "type": "address"
        }
      ],
      "name": "balanceOf",
      "outputs": [
        {
          "internalType": "uint256",
          "name": "",
          "type": "uint256"
        }
      ],
      "stateMutability": "view",
      "type": "function"
    },
    {
      "inputs": [],
      "name": "baseURI",
      "outputs": [
        {
          "internalType": "string",
          "name": "",
          "type": "string"
        }
      ],
      "stateMutability": "view",
      "type": "function"
    },
    {
      "inputs": [
        {
          "internalType": "uint256",
          "name": "tokenId",
          "type": "uint256"
        }
      ],
      "name": "getApproved",
      "outputs": [
        {
          "internalType": "address",
          "name": "",
          "type": "address"
        }
      ],
      "stateMutability": "view",
      "type": "function"
    },
    {
      "inputs": [
        {
          "internalType": "address",
          "name": "owner",
          "type": "address"
        },
        {
          "internalType": "address",
          "name": "operator",
          "type": "address"
        }
      ],
      "name": "isApprovedForAll",
      "outputs": [
        {
          "internalType": "bool",
          "name": "",
          "type": "bool"
        }
      ],
      "stateMutability": "view",
      "type": "function"
    },
    {
      "inputs": [
        {
          "internalType": "uint256",
          "name": "_quantity",
          "type": "uint256"
        }
      ],
      "name": "mint",
      "outputs": [],
      "stateMutability": "payable",
      "type": "function"
    },
    {
      "inputs": [],
      "name": "mintStarted",
      "outputs": [
        {
          "internalType": "bool",
          "name": "",
          "type": "bool"
        }
      ],
      "stateMutability": "view",
      "type": "function"
    },
    {
      "inputs": [],
      "name": "name",
      "outputs": [
        {
          "internalType": "string",
          "name": "",
          "type": "string"
        }
      ],
      "stateMutability": "view",
      "type": "function"
    },
    {
      "inputs": [],
      "name": "owner",
      "outputs": [
        {
          "internalType": "address",
          "name": "",
          "type": "address"
        }
      ],
      "stateMutability": "view",
      "type": "function"
    },
    {
      "inputs": [
        {
          "internalType": "uint256",
          "name": "tokenId",
          "type": "uint256"
        }
      ],
      "name": "ownerOf",
      "outputs": [
        {
          "internalType": "address",
          "name": "",
          "type": "address"
        }
      ],
      "stateMutability": "view",
      "type": "function"
    },
    {
      "inputs": [],
      "name": "renounceOwnership",
      "outputs": [],
      "stateMutability": "nonpayable",
      "type": "function"
    },
    {
      "inputs": [
        {
          "internalType": "uint256",
          "name": "mintAmount",
          "type": "uint256"
        }
      ],
      "name": "reserveMint",
      "outputs": [],
      "stateMutability": "nonpayable",
      "type": "function"
    },
    {
      "inputs": [
        {
          "internalType": "address",
          "name": "from",
          "type": "address"
        },
        {
          "internalType": "address",
          "name": "to",
          "type": "address"
        },
        {
          "internalType": "uint256",
          "name": "tokenId",
          "type": "uint256"
        }
      ],
      "name": "safeTransferFrom",
      "outputs": [],
      "stateMutability": "payable",
      "type": "function"
    },
    {
      "inputs": [
        {
          "internalType": "address",
          "name": "from",
          "type": "address"
        },
        {
          "internalType": "address",
          "name": "to",
          "type": "address"
        },
        {
          "internalType": "uint256",
          "name": "tokenId",
          "type": "uint256"
        },
        {
          "internalType": "bytes",
          "name": "_data",
          "type": "bytes"
        }
      ],
      "name": "safeTransferFrom",
      "outputs": [],
      "stateMutability": "payable",
      "type": "function"
    },
    {
      "inputs": [
        {
          "internalType": "address",
          "name": "operator",
          "type": "address"
        },
        {
          "internalType": "bool",
          "name": "approved",
          "type": "bool"
        }
      ],
      "name": "setApprovalForAll",
      "outputs": [],
      "stateMutability": "nonpayable",
      "type": "function"
    },
    {
      "inputs": [
        {
          "internalType": "string",
          "name": "uri",
          "type": "string"
        }
      ],
      "name": "setBaseURI",
      "outputs": [],
      "stateMutability": "nonpayable",
      "type": "function"
    },
    {
      "inputs": [
        {
          "internalType": "uint256",
          "name": "_newPrice",
          "type": "uint256"
        }
      ],
      "name": "setPrice",
      "outputs": [],
      "stateMutability": "nonpayable",
      "type": "function"
    },
    {
      "inputs": [],
      "name": "startSale",
      "outputs": [],
      "stateMutability": "nonpayable",
      "type": "function"
    },
    {
      "inputs": [
        {
          "internalType": "bytes4",
          "name": "interfaceId",
          "type": "bytes4"
        }
      ],
      "name": "supportsInterface",
      "outputs": [
        {
          "internalType": "bool",
          "name": "",
          "type": "bool"
        }
      ],
      "stateMutability": "view",
      "type": "function"
    },
    {
      "inputs": [],
      "name": "symbol",
      "outputs": [
        {
          "internalType": "string",
          "name": "",
          "type": "string"
        }
      ],
      "stateMutability": "view",
      "type": "function"
    },
    {
      "inputs": [
        {
          "internalType": "uint256",
          "name": "tokenId",
          "type": "uint256"
        }
      ],
      "name": "tokenURI",
      "outputs": [
        {
          "internalType": "string",
          "name": "",
          "type": "string"
        }
      ],
      "stateMutability": "view",
      "type": "function"
    },
    {
      "inputs": [],
      "name": "totalSupply",
      "outputs": [
        {
          "internalType": "uint256",
          "name": "",
          "type": "uint256"
        }
      ],
      "stateMutability": "view",
      "type": "function"
    },
    {
      "inputs": [
        {
          "internalType": "address",
          "name": "from",
          "type": "address"
        },
        {
          "internalType": "address",
          "name": "to",
          "type": "address"
        },
        {
          "internalType": "uint256",
          "name": "tokenId",
          "type": "uint256"
        }
      ],
      "name": "transferFrom",
      "outputs": [],
      "stateMutability": "payable",
      "type": "function"
    },
    {
      "inputs": [
        {
          "internalType": "address",
          "name": "newOwner",
          "type": "address"
        }
      ],
      "name": "transferOwnership",
      "outputs": [],
      "stateMutability": "nonpayable",
      "type": "function"
    },
    {
      "inputs": [
        {
          "internalType": "address",
          "name": "",
          "type": "address"
        }
      ],
      "name": "walletMintCount",
      "outputs": [
        {
          "internalType": "uint256",
          "name": "",
          "type": "uint256"
        }
      ],
      "stateMutability": "view",
      "type": "function"
    },
    {
      "inputs": [],
      "name": "withdraw",
      "outputs": [],
      "stateMutability": "nonpayable",
      "type": "function"
    }
  ],
  "bytecode": "0x60806040526101bc600955660fc6280ecd8000600a556002600b556000600c60006101000a81548160ff021916908315150217905550604051806060016040528060368152602001620037c960369139600d90816200005f91906200048d565b503480156200006d57600080fd5b506040518060400160405280600d81526020017f477265656420697320676f6f64000000000000000000000000000000000000008152506040518060400160405280600381526020017f47494700000000000000000000000000000000000000000000000000000000008152508160029081620000eb91906200048d565b508060039081620000fd91906200048d565b506200010e6200013c60201b60201c565b6000819055505050620001366200012a6200014560201b60201c565b6200014d60201b60201c565b62000574565b60006001905090565b600033905090565b6000600860009054906101000a900473ffffffffffffffffffffffffffffffffffffffff16905081600860006101000a81548173ffffffffffffffffffffffffffffffffffffffff021916908373ffffffffffffffffffffffffffffffffffffffff1602179055508173ffffffffffffffffffffffffffffffffffffffff168173ffffffffffffffffffffffffffffffffffffffff167f8be0079c531659141344cd1fd0a4f28419497f9722a3daafe3b4186f6b6457e060405160405180910390a35050565b600081519050919050565b7f4e487b7100000000000000000000000000000000000000000000000000000000600052604160045260246000fd5b7f4e487b7100000000000000000000000000000000000000000000000000000000600052602260045260246000fd5b600060028204905060018216806200029557607f821691505b602082108103620002ab57620002aa6200024d565b5b50919050565b60008190508160005260206000209050919050565b60006020601f8301049050919050565b600082821b905092915050565b600060088302620003157fffffffffffffffffffffffffffffffffffffffffffffffffffffffffffffffff82620002d6565b620003218683620002d6565b95508019841693508086168417925050509392505050565b6000819050919050565b6000819050919050565b60006200036e62000368620003628462000339565b62000343565b62000339565b9050919050565b6000819050919050565b6200038a836200034d565b620003a2620003998262000375565b848454620002e3565b825550505050565b600090565b620003b9620003aa565b620003c68184846200037f565b505050565b5b81811015620003ee57620003e2600082620003af565b600181019050620003cc565b5050565b601f8211156200043d576200040781620002b1565b6200041284620002c6565b8101602085101562000422578190505b6200043a6200043185620002c6565b830182620003cb565b50505b505050565b600082821c905092915050565b6000620004626000198460080262000442565b1980831691505092915050565b60006200047d83836200044f565b9150826002028217905092915050565b620004988262000213565b67ffffffffffffffff811115620004b457620004b36200021e565b5b620004c082546200027c565b620004cd828285620003f2565b600060209050601f831160018114620005055760008415620004f0578287015190505b620004fc85826200046f565b8655506200056c565b601f1984166200051586620002b1565b60005b828110156200053f5784890151825560018201915060208501945060208101905062000518565b868310156200055f57848901516200055b601f8916826200044f565b8355505b6001600288020188555050505b505050505050565b61324580620005846000396000f3fe6080604052600436106101c25760003560e01c8063715018a6116100f7578063a22cb46511610095578063c87b56dd11610064578063c87b56dd146105c5578063e985e9c514610602578063f0292a031461063f578063f2fde38b1461066a576101c2565b8063a22cb4651461053e578063a9722cf314610567578063b66a0e5d14610592578063b88d4fde146105a9576101c2565b806391b7f5ed116100d157806391b7f5ed1461049157806393ecb0c6146104ba57806395d89b41146104f7578063a0712d6814610522576101c2565b8063715018a6146104245780637f205a741461043b5780638da5cb5b14610466576101c2565b806332cb6b0c1161016457806355f804b31161013e57806355f804b3146103565780636352211e1461037f5780636c0360eb146103bc57806370a08231146103e7576101c2565b806332cb6b0c146102f85780633ccfd60b1461032357806342842e0e1461033a576101c2565b8063095ea7b3116101a0578063095ea7b31461026c5780631342ff4c1461028857806318160ddd146102b157806323b872dd146102dc576101c2565b806301ffc9a7146101c757806306fdde0314610204578063081812fc1461022f575b600080fd5b3480156101d357600080fd5b506101ee60048036038101906101e99190612109565b610693565b6040516101fb9190612151565b60405180910390f35b34801561021057600080fd5b50610219610725565b60405161022691906121fc565b60405180910390f35b34801561023b57600080fd5b5061025660048036038101906102519190612254565b6107b7565b60405161026391906122c2565b60405180910390f35b61028660048036038101906102819190612309565b610836565b005b34801561029457600080fd5b506102af60048036038101906102aa9190612254565b61097a565b005b3480156102bd57600080fd5b506102c6610a03565b6040516102d39190612358565b60405180910390f35b6102f660048036038101906102f19190612373565b610a1a565b005b34801561030457600080fd5b5061030d610d3c565b60405161031a9190612358565b60405180910390f35b34801561032f57600080fd5b50610338610d42565b005b610354600480360381019061034f9190612373565b610e6d565b005b34801561036257600080fd5b5061037d600480360381019061037891906124fb565b610e8d565b005b34801561038b57600080fd5b506103a660048036038101906103a19190612254565b610f1c565b6040516103b391906122c2565b60405180910390f35b3480156103c857600080fd5b506103d1610f2e565b6040516103de91906121fc565b60405180910390f35b3480156103f357600080fd5b5061040e60048036038101906104099190612544565b610fbc565b60405161041b9190612358565b60405180910390f35b34801561043057600080fd5b50610439611074565b005b34801561044757600080fd5b506104506110fc565b60405161045d9190612358565b60405180910390f35b34801561047257600080fd5b5061047b611102565b60405161048891906122c2565b60405180910390f35b34801561049d57600080fd5b506104b860048036038101906104b39190612254565b61112c565b005b3480156104c657600080fd5b506104e160048036038101906104dc9190612544565b6111b2565b6040516104ee9190612358565b60405180910390f35b34801561050357600080fd5b5061050c6111ca565b60405161051991906121fc565b60405180910390f35b61053c60048036038101906105379190612254565b61125c565b005b34801561054a57600080fd5b506105656004803603810190610560919061259d565b611444565b005b34801561057357600080fd5b5061057c61154f565b6040516105899190612151565b60405180910390f35b34801561059e57600080fd5b506105a7611562565b005b6105c360048036038101906105be919061267e565b61160a565b005b3480156105d157600080fd5b506105ec60048036038101906105e79190612254565b61167d565b6040516105f991906121fc565b60405180910390f35b34801561060e57600080fd5b5061062960048036038101906106249190612701565b6116f9565b6040516106369190612151565b60405180910390f35b34801561064b57600080fd5b5061065461178d565b6040516106619190612358565b60405180910390f35b34801561067657600080fd5b50610691600480360381019061068c9190612544565b611793565b005b60006301ffc9a760e01b827bffffffffffffffffffffffffffffffffffffffffffffffffffffffff191614806106ee57506380ac58cd60e01b827bffffffffffffffffffffffffffffffffffffffffffffffffffffffff1916145b8061071e5750635b5e139f60e01b827bffffffffffffffffffffffffffffffffffffffffffffffffffffffff1916145b9050919050565b60606002805461073490612770565b80601f016020809104026020016040519081016040528092919081815260200182805461076090612770565b80156107ad5780601f10610782576101008083540402835291602001916107ad565b820191906000526020600020905b81548152906001019060200180831161079057829003601f168201915b5050505050905090565b60006107c28261188a565b6107f8576040517fcf4700e400000000000000000000000000000000000000000000000000000000815260040160405180910390fd5b6006600083815260200190815260200160002060000160009054906101000a900473ffffffffffffffffffffffffffffffffffffffff169050919050565b600061084182610f1c565b90508073ffffffffffffffffffffffffffffffffffffffff166108626118e9565b73ffffffffffffffffffffffffffffffffffffffff16146108c55761088e816108896118e9565b6116f9565b6108c4576040517fcfb3b94200000000000000000000000000000000000000000000000000000000815260040160405180910390fd5b5b826006600084815260200190815260200160002060000160006101000a81548173ffffffffffffffffffffffffffffffffffffffff021916908373ffffffffffffffffffffffffffffffffffffffff160217905550818373ffffffffffffffffffffffffffffffffffffffff168273ffffffffffffffffffffffffffffffffffffffff167f8c5be1e5ebec7d5bd14f71427d1e84f3dd0314c0f7b2291e5b200ac8c7c3b92560405160405180910390a4505050565b6109826118f1565b73ffffffffffffffffffffffffffffffffffffffff166109a0611102565b73ffffffffffffffffffffffffffffffffffffffff16146109f6576040517f08c379a00000000000000000000000000000000000000000000000000000000081526004016109ed906127ed565b60405180910390fd5b610a0033826118f9565b50565b6000610a0d611917565b6001546000540303905090565b6000610a2582611920565b90508373ffffffffffffffffffffffffffffffffffffffff168173ffffffffffffffffffffffffffffffffffffffff1614610a8c576040517fa114810000000000000000000000000000000000000000000000000000000000815260040160405180910390fd5b600080610a98846119ec565b91509150610aae8187610aa96118e9565b611a13565b610afa57610ac386610abe6118e9565b6116f9565b610af9576040517f59c896be00000000000000000000000000000000000000000000000000000000815260040160405180910390fd5b5b600073ffffffffffffffffffffffffffffffffffffffff168573ffffffffffffffffffffffffffffffffffffffff1603610b60576040517fea553b3400000000000000000000000000000000000000000000000000000000815260040160405180910390fd5b610b6d8686866001611a57565b8015610b7857600082555b600560008773ffffffffffffffffffffffffffffffffffffffff1673ffffffffffffffffffffffffffffffffffffffff168152602001908152602001600020600081546001900391905081905550600560008673ffffffffffffffffffffffffffffffffffffffff1673ffffffffffffffffffffffffffffffffffffffff1681526020019081526020016000206000815460010191905081905550610c4685610c22888887611a5d565b7c020000000000000000000000000000000000000000000000000000000017611a85565b600460008681526020019081526020016000208190555060007c0200000000000000000000000000000000000000000000000000000000841603610ccc5760006001850190506000600460008381526020019081526020016000205403610cca576000548114610cc9578360046000838152602001908152602001600020819055505b5b505b838573ffffffffffffffffffffffffffffffffffffffff168773ffffffffffffffffffffffffffffffffffffffff167fddf252ad1be2c89b69c2b068fc378daa952ba7f163c4a11628f55a4df523b3ef60405160405180910390a4610d348686866001611ab0565b505050505050565b60095481565b610d4a6118f1565b73ffffffffffffffffffffffffffffffffffffffff16610d68611102565b73ffffffffffffffffffffffffffffffffffffffff1614610dbe576040517f08c379a0000000000000000000000000000000000000000000000000000000008152600401610db5906127ed565b60405180910390fd5b60003373ffffffffffffffffffffffffffffffffffffffff1647604051610de49061283e565b60006040518083038185875af1925050503d8060008114610e21576040519150601f19603f3d011682016040523d82523d6000602084013e610e26565b606091505b5050905080610e6a576040517f08c379a0000000000000000000000000000000000000000000000000000000008152600401610e619061289f565b60405180910390fd5b50565b610e888383836040518060200160405280600081525061160a565b505050565b610e956118f1565b73ffffffffffffffffffffffffffffffffffffffff16610eb3611102565b73ffffffffffffffffffffffffffffffffffffffff1614610f09576040517f08c379a0000000000000000000000000000000000000000000000000000000008152600401610f00906127ed565b60405180910390fd5b80600d9081610f189190612a6b565b5050565b6000610f2782611920565b9050919050565b600d8054610f3b90612770565b80601f0160208091040260200160405190810160405280929190818152602001828054610f6790612770565b8015610fb45780601f10610f8957610100808354040283529160200191610fb4565b820191906000526020600020905b815481529060010190602001808311610f9757829003601f168201915b505050505081565b60008073ffffffffffffffffffffffffffffffffffffffff168273ffffffffffffffffffffffffffffffffffffffff1603611023576040517f8f4eb60400000000000000000000000000000000000000000000000000000000815260040160405180910390fd5b67ffffffffffffffff600560008473ffffffffffffffffffffffffffffffffffffffff1673ffffffffffffffffffffffffffffffffffffffff16815260200190815260200160002054169050919050565b61107c6118f1565b73ffffffffffffffffffffffffffffffffffffffff1661109a611102565b73ffffffffffffffffffffffffffffffffffffffff16146110f0576040517f08c379a00000000000000000000000000000000000000000000000000000000081526004016110e7906127ed565b60405180910390fd5b6110fa6000611ab6565b565b600a5481565b6000600860009054906101000a900473ffffffffffffffffffffffffffffffffffffffff16905090565b6111346118f1565b73ffffffffffffffffffffffffffffffffffffffff16611152611102565b73ffffffffffffffffffffffffffffffffffffffff16146111a8576040517f08c379a000000000000000000000000000000000000000000000000000000000815260040161119f906127ed565b60405180910390fd5b80600a8190555050565b600e6020528060005260406000206000915090505481565b6060600380546111d990612770565b80601f016020809104026020016040519081016040528092919081815260200182805461120590612770565b80156112525780601f1061122757610100808354040283529160200191611252565b820191906000526020600020905b81548152906001019060200180831161123557829003601f168201915b5050505050905090565b600c60009054906101000a900460ff166112ab576040517f08c379a00000000000000000000000000000000000000000000000000000000081526004016112a290612b89565b60405180910390fd5b600954816112b7610a03565b6112c19190612bd8565b1115611302576040517f08c379a00000000000000000000000000000000000000000000000000000000081526004016112f990612c58565b60405180910390fd5b600b5481600e60003373ffffffffffffffffffffffffffffffffffffffff1673ffffffffffffffffffffffffffffffffffffffff168152602001908152602001600020546113509190612bd8565b1115611391576040517f08c379a000000000000000000000000000000000000000000000000000000000815260040161138890612cc4565b60405180910390fd5b80600a5461139f9190612ce4565b3410156113e1576040517f08c379a00000000000000000000000000000000000000000000000000000000081526004016113d890612d72565b60405180910390fd5b80600e60003373ffffffffffffffffffffffffffffffffffffffff1673ffffffffffffffffffffffffffffffffffffffff16815260200190815260200160002060008282546114309190612bd8565b9250508190555061144133826118f9565b50565b80600760006114516118e9565b73ffffffffffffffffffffffffffffffffffffffff1673ffffffffffffffffffffffffffffffffffffffff16815260200190815260200160002060008473ffffffffffffffffffffffffffffffffffffffff1673ffffffffffffffffffffffffffffffffffffffff16815260200190815260200160002060006101000a81548160ff0219169083151502179055508173ffffffffffffffffffffffffffffffffffffffff166114fe6118e9565b73ffffffffffffffffffffffffffffffffffffffff167f17307eab39ab6107e8899845ad3d59bd9653f200f220920489ca2b5937696c31836040516115439190612151565b60405180910390a35050565b600c60009054906101000a900460ff1681565b61156a6118f1565b73ffffffffffffffffffffffffffffffffffffffff16611588611102565b73ffffffffffffffffffffffffffffffffffffffff16146115de576040517f08c379a00000000000000000000000000000000000000000000000000000000081526004016115d5906127ed565b60405180910390fd5b600c60009054906101000a900460ff1615600c60006101000a81548160ff021916908315150217905550565b611615848484610a1a565b60008373ffffffffffffffffffffffffffffffffffffffff163b146116775761164084848484611b7c565b611676576040517fd1a57ed600000000000000000000000000000000000000000000000000000000815260040160405180910390fd5b5b50505050565b60606116888261188a565b6116c7576040517f08c379a00000000000000000000000000000000000000000000000000000000081526004016116be90612e04565b60405180910390fd5b600d6116d283611ccc565b6040516020016116e3929190612f2f565b6040516020818303038152906040529050919050565b6000600760008473ffffffffffffffffffffffffffffffffffffffff1673ffffffffffffffffffffffffffffffffffffffff16815260200190815260200160002060008373ffffffffffffffffffffffffffffffffffffffff1673ffffffffffffffffffffffffffffffffffffffff16815260200190815260200160002060009054906101000a900460ff16905092915050565b600b5481565b61179b6118f1565b73ffffffffffffffffffffffffffffffffffffffff166117b9611102565b73ffffffffffffffffffffffffffffffffffffffff161461180f576040517f08c379a0000000000000000000000000000000000000000000000000000000008152600401611806906127ed565b60405180910390fd5b600073ffffffffffffffffffffffffffffffffffffffff168173ffffffffffffffffffffffffffffffffffffffff160361187e576040517f08c379a000000000000000000000000000000000000000000000000000000000815260040161187590612fd0565b60405180910390fd5b61188781611ab6565b50565b600081611895611917565b111580156118a4575060005482105b80156118e2575060007c0100000000000000000000000000000000000000000000000000000000600460008581526020019081526020016000205416145b9050919050565b600033905090565b600033905090565b611913828260405180602001604052806000815250611e2c565b5050565b60006001905090565b6000808290508061192f611917565b116119b5576000548110156119b45760006004600083815260200190815260200160002054905060007c01000000000000000000000000000000000000000000000000000000008216036119b2575b600081036119a857600460008360019003935083815260200190815260200160002054905061197e565b80925050506119e7565b505b5b6040517fdf2d9b4200000000000000000000000000000000000000000000000000000000815260040160405180910390fd5b919050565b60008060006006600085815260200190815260200160002090508092508254915050915091565b600073ffffffffffffffffffffffffffffffffffffffff8316925073ffffffffffffffffffffffffffffffffffffffff821691508382148383141790509392505050565b50505050565b60008060e883901c905060e8611a74868684611ec9565b62ffffff16901b9150509392505050565b600073ffffffffffffffffffffffffffffffffffffffff83169250814260a01b178317905092915050565b50505050565b6000600860009054906101000a900473ffffffffffffffffffffffffffffffffffffffff16905081600860006101000a81548173ffffffffffffffffffffffffffffffffffffffff021916908373ffffffffffffffffffffffffffffffffffffffff1602179055508173ffffffffffffffffffffffffffffffffffffffff168173ffffffffffffffffffffffffffffffffffffffff167f8be0079c531659141344cd1fd0a4f28419497f9722a3daafe3b4186f6b6457e060405160405180910390a35050565b60008373ffffffffffffffffffffffffffffffffffffffff1663150b7a02611ba26118e9565b8786866040518563ffffffff1660e01b8152600401611bc49493929190613045565b6020604051808303816000875af1925050508015611c0057506040513d601f19601f82011682018060405250810190611bfd91906130a6565b60015b611c79573d8060008114611c30576040519150601f19603f3d011682016040523d82523d6000602084013e611c35565b606091505b506000815103611c71576040517fd1a57ed600000000000000000000000000000000000000000000000000000000815260040160405180910390fd5b805181602001fd5b63150b7a0260e01b7bffffffffffffffffffffffffffffffffffffffffffffffffffffffff1916817bffffffffffffffffffffffffffffffffffffffffffffffffffffffff191614915050949350505050565b606060008203611d13576040518060400160405280600181526020017f30000000000000000000000000000000000000000000000000000000000000008152509050611e27565b600082905060005b60008214611d45578080611d2e906130d3565b915050600a82611d3e919061314a565b9150611d1b565b60008167ffffffffffffffff811115611d6157611d606123d0565b5b6040519080825280601f01601f191660200182016040528015611d935781602001600182028036833780820191505090505b5090505b60008514611e2057600182611dac919061317b565b9150600a85611dbb91906131af565b6030611dc79190612bd8565b60f81b818381518110611ddd57611ddc6131e0565b5b60200101907effffffffffffffffffffffffffffffffffffffffffffffffffffffffffffff1916908160001a905350600a85611e19919061314a565b9450611d97565b8093505050505b919050565b611e368383611ed2565b60008373ffffffffffffffffffffffffffffffffffffffff163b14611ec457600080549050600083820390505b611e766000868380600101945086611b7c565b611eac576040517fd1a57ed600000000000000000000000000000000000000000000000000000000815260040160405180910390fd5b818110611e63578160005414611ec157600080fd5b50505b505050565b60009392505050565b60008054905060008203611f12576040517fb562e8dd00000000000000000000000000000000000000000000000000000000815260040160405180910390fd5b611f1f6000848385611a57565b600160406001901b178202600560008573ffffffffffffffffffffffffffffffffffffffff1673ffffffffffffffffffffffffffffffffffffffff16815260200190815260200160002060008282540192505081905550611f9683611f876000866000611a5d565b611f908561208d565b17611a85565b6004600083815260200190815260200160002081905550600080838301905073ffffffffffffffffffffffffffffffffffffffff85169150828260007fddf252ad1be2c89b69c2b068fc378daa952ba7f163c4a11628f55a4df523b3ef600080a4600183015b81811461203757808360007fddf252ad1be2c89b69c2b068fc378daa952ba7f163c4a11628f55a4df523b3ef600080a4600181019050611ffc565b5060008203612072576040517f2e07630000000000000000000000000000000000000000000000000000000000815260040160405180910390fd5b8060008190555050506120886000848385611ab0565b505050565b60006001821460e11b9050919050565b6000604051905090565b600080fd5b600080fd5b60007fffffffff0000000000000000000000000000000000000000000000000000000082169050919050565b6120e6816120b1565b81146120f157600080fd5b50565b600081359050612103816120dd565b92915050565b60006020828403121561211f5761211e6120a7565b5b600061212d848285016120f4565b91505092915050565b60008115159050919050565b61214b81612136565b82525050565b60006020820190506121666000830184612142565b92915050565b600081519050919050565b600082825260208201905092915050565b60005b838110156121a657808201518184015260208101905061218b565b60008484015250505050565b6000601f19601f8301169050919050565b60006121ce8261216c565b6121d88185612177565b93506121e8818560208601612188565b6121f1816121b2565b840191505092915050565b6000602082019050818103600083015261221681846121c3565b905092915050565b6000819050919050565b6122318161221e565b811461223c57600080fd5b50565b60008135905061224e81612228565b92915050565b60006020828403121561226a576122696120a7565b5b60006122788482850161223f565b91505092915050565b600073ffffffffffffffffffffffffffffffffffffffff82169050919050565b60006122ac82612281565b9050919050565b6122bc816122a1565b82525050565b60006020820190506122d760008301846122b3565b92915050565b6122e6816122a1565b81146122f157600080fd5b50565b600081359050612303816122dd565b92915050565b600080604083850312156123205761231f6120a7565b5b600061232e858286016122f4565b925050602061233f8582860161223f565b9150509250929050565b6123528161221e565b82525050565b600060208201905061236d6000830184612349565b92915050565b60008060006060848603121561238c5761238b6120a7565b5b600061239a868287016122f4565b93505060206123ab868287016122f4565b92505060406123bc8682870161223f565b9150509250925092565b600080fd5b600080fd5b7f4e487b7100000000000000000000000000000000000000000000000000000000600052604160045260246000fd5b612408826121b2565b810181811067ffffffffffffffff82111715612427576124266123d0565b5b80604052505050565b600061243a61209d565b905061244682826123ff565b919050565b600067ffffffffffffffff821115612466576124656123d0565b5b61246f826121b2565b9050602081019050919050565b82818337600083830152505050565b600061249e6124998461244b565b612430565b9050828152602081018484840111156124ba576124b96123cb565b5b6124c584828561247c565b509392505050565b600082601f8301126124e2576124e16123c6565b5b81356124f284826020860161248b565b91505092915050565b600060208284031215612511576125106120a7565b5b600082013567ffffffffffffffff81111561252f5761252e6120ac565b5b61253b848285016124cd565b91505092915050565b60006020828403121561255a576125596120a7565b5b6000612568848285016122f4565b91505092915050565b61257a81612136565b811461258557600080fd5b50565b60008135905061259781612571565b92915050565b600080604083850312156125b4576125b36120a7565b5b60006125c2858286016122f4565b92505060206125d385828601612588565b9150509250929050565b600067ffffffffffffffff8211156125f8576125f76123d0565b5b612601826121b2565b9050602081019050919050565b600061262161261c846125dd565b612430565b90508281526020810184848401111561263d5761263c6123cb565b5b61264884828561247c565b509392505050565b600082601f830112612665576126646123c6565b5b813561267584826020860161260e565b91505092915050565b60008060008060808587031215612698576126976120a7565b5b60006126a6878288016122f4565b94505060206126b7878288016122f4565b93505060406126c88782880161223f565b925050606085013567ffffffffffffffff8111156126e9576126e86120ac565b5b6126f587828801612650565b91505092959194509250565b60008060408385031215612718576127176120a7565b5b6000612726858286016122f4565b9250506020612737858286016122f4565b9150509250929050565b7f4e487b7100000000000000000000000000000000000000000000000000000000600052602260045260246000fd5b6000600282049050600182168061278857607f821691505b60208210810361279b5761279a612741565b5b50919050565b7f4f776e61626c653a2063616c6c6572206973206e6f7420746865206f776e6572600082015250565b60006127d7602083612177565b91506127e2826127a1565b602082019050919050565b60006020820190508181036000830152612806816127ca565b9050919050565b600081905092915050565b50565b600061282860008361280d565b915061283382612818565b600082019050919050565b60006128498261281b565b9150819050919050565b7f5472616e73666572206661696c65642e00000000000000000000000000000000600082015250565b6000612889601083612177565b915061289482612853565b602082019050919050565b600060208201905081810360008301526128b88161287c565b9050919050565b60008190508160005260206000209050919050565b60006020601f8301049050919050565b600082821b905092915050565b6000600883026129217fffffffffffffffffffffffffffffffffffffffffffffffffffffffffffffffff826128e4565b61292b86836128e4565b95508019841693508086168417925050509392505050565b6000819050919050565b600061296861296361295e8461221e565b612943565b61221e565b9050919050565b6000819050919050565b6129828361294d565b61299661298e8261296f565b8484546128f1565b825550505050565b600090565b6129ab61299e565b6129b6818484612979565b505050565b5b818110156129da576129cf6000826129a3565b6001810190506129bc565b5050565b601f821115612a1f576129f0816128bf565b6129f9846128d4565b81016020851015612a08578190505b612a1c612a14856128d4565b8301826129bb565b50505b505050565b600082821c905092915050565b6000612a4260001984600802612a24565b1980831691505092915050565b6000612a5b8383612a31565b9150826002028217905092915050565b612a748261216c565b67ffffffffffffffff811115612a8d57612a8c6123d0565b5b612a978254612770565b612aa28282856129de565b600060209050601f831160018114612ad55760008415612ac3578287015190505b612acd8582612a4f565b865550612b35565b601f198416612ae3866128bf565b60005b82811015612b0b57848901518255600182019150602085019450602081019050612ae6565b86831015612b285784890151612b24601f891682612a31565b8355505b6001600288020188555050505b505050505050565b7f4d696e74206861736e27742073746172746564207965742e0000000000000000600082015250565b6000612b73601883612177565b9150612b7e82612b3d565b602082019050919050565b60006020820190508181036000830152612ba281612b66565b9050919050565b7f4e487b7100000000000000000000000000000000000000000000000000000000600052601160045260246000fd5b6000612be38261221e565b9150612bee8361221e565b9250828201905080821115612c0657612c05612ba9565b5b92915050565b7f4d617820737570706c792065786365656465642e000000000000000000000000600082015250565b6000612c42601483612177565b9150612c4d82612c0c565b602082019050919050565b60006020820190508181036000830152612c7181612c35565b9050919050565b7f4d6178206d696e74206578636565646564000000000000000000000000000000600082015250565b6000612cae601183612177565b9150612cb982612c78565b602082019050919050565b60006020820190508181036000830152612cdd81612ca1565b9050919050565b6000612cef8261221e565b9150612cfa8361221e565b9250828202612d088161221e565b91508282048414831517612d1f57612d1e612ba9565b5b5092915050565b7f57726f6e67206d696e742070726963652e000000000000000000000000000000600082015250565b6000612d5c601183612177565b9150612d6782612d26565b602082019050919050565b60006020820190508181036000830152612d8b81612d4f565b9050919050565b7f4552433732314d657461646174613a2055524920717565727920666f72206e6f60008201527f6e6578697374656e7420746f6b656e0000000000000000000000000000000000602082015250565b6000612dee602f83612177565b9150612df982612d92565b604082019050919050565b60006020820190508181036000830152612e1d81612de1565b9050919050565b600081905092915050565b60008154612e3c81612770565b612e468186612e24565b94506001821660008114612e615760018114612e7657612ea9565b60ff1983168652811515820286019350612ea9565b612e7f856128bf565b60005b83811015612ea157815481890152600182019150602081019050612e82565b838801955050505b50505092915050565b6000612ebd8261216c565b612ec78185612e24565b9350612ed7818560208601612188565b80840191505092915050565b7f2e6a736f6e000000000000000000000000000000000000000000000000000000600082015250565b6000612f19600583612e24565b9150612f2482612ee3565b600582019050919050565b6000612f3b8285612e2f565b9150612f478284612eb2565b9150612f5282612f0c565b91508190509392505050565b7f4f776e61626c653a206e6577206f776e657220697320746865207a65726f206160008201527f6464726573730000000000000000000000000000000000000000000000000000602082015250565b6000612fba602683612177565b9150612fc582612f5e565b604082019050919050565b60006020820190508181036000830152612fe981612fad565b9050919050565b600081519050919050565b600082825260208201905092915050565b600061301782612ff0565b6130218185612ffb565b9350613031818560208601612188565b61303a816121b2565b840191505092915050565b600060808201905061305a60008301876122b3565b61306760208301866122b3565b6130746040830185612349565b8181036060830152613086818461300c565b905095945050505050565b6000815190506130a0816120dd565b92915050565b6000602082840312156130bc576130bb6120a7565b5b60006130ca84828501613091565b91505092915050565b60006130de8261221e565b91507fffffffffffffffffffffffffffffffffffffffffffffffffffffffffffffffff82036131105761310f612ba9565b5b600182019050919050565b7f4e487b7100000000000000000000000000000000000000000000000000000000600052601260045260246000fd5b60006131558261221e565b91506131608361221e565b9250826131705761316f61311b565b5b828204905092915050565b60006131868261221e565b91506131918361221e565b92508282039050818111156131a9576131a8612ba9565b5b92915050565b60006131ba8261221e565b91506131c58361221e565b9250826131d5576131d461311b565b5b828206905092915050565b7f4e487b7100000000000000000000000000000000000000000000000000000000600052603260045260246000fdfea264697066735822122050e23797aeb49facf1a5e2301a6f81aeeb4a85cbe0d662d4b31abb994740529064736f6c63430008110033697066733a2f2f516d634e486454654e59324367783253686f367457356d5a59314e63554e764375486e70706b416d4147715579572f",
  "linkReferences": {},
  "deployedLinkReferences": {}
}